:0D0D7D005765696768743A2000206D6700B3
:100C6B00C100C101C102022E00000233000002309C
:100C7B0000000226000001280001350004360000A8
:080C8B000000042A0000000033
:100B8400E4F5B0F5A05390EF5380F0120D0D120C64
:100B9400F2120D6DC29475C5013000FDC20075C519
:100BA400803000FDE5215403F529C200E4F5C53089
:100BB40000FD852132C200D294E529FE7C00E425A3
:100BC40032F52FEC3EF52E7D04AF34AE33120BFC20
:100BD4007BFF7A0D797D7D09120C3F7B007A0079C9
:100BE4003A7D04120C3F7BFF7A0D79867D03120C4B
:080BF4003F7F80120D41809C3F
:03004B00020CD6CE
:100CD600C0E0C0D075D000C007AFC4EF2480700557
:0C0CE60085C521D200D007D0D0D0E0326C
:03000B00020B03E2
:100B0300C0E0C0F0C083C082C0D075D000C000C0B8
:100B130001C002C003C004C005C006C007758C3CF9
:100B2300758AB00528E52F2527F527E52E3526F507
:100B330026E52875F00A84E5F0702BAC26AD27EC8A
:100B430012090B7BA67A9B79C4783E1208008F2D7D
:100B53008E2C8D2B8C2A1209448E338F34752600EC
:100B6300752700752800D007D006D005D004D00320
:100B7300D002D001D000D0D0D082D083D0F0D0E04A
:010B8300323F
:100D0D00D29443C32043C30143C31053C3F743C31A
:0A0D1D000443B104D2AF43C34022E7
:100D6D00758C3C758AB0758901D2AFD2A9D28C220F
:100CF2007F647E00120C9C7F38120D417F0E120D14
:0B0D0200417F01120D417F80020D4176
:100D41008F08120D278508A0C280120C94C2827FE1
:060D5100057E00020C9C6F
:100D57008F0C120D27850CA0D280120C94C2827FB3
:060D6700057E00020C9C59
:100C3F008B088A09890A8D0BE50BD39400401CABF6
:100C4F0008AA09A90A1209C5FF120D577401250A2E
:0C0C5F00F50AE43509F509150B80DD22CB
:100D270075A0FFC280D281C282120C98D28230A7EE
:0A0D370006C282D28280F7C2822237
:080C9400C281D2827F057E00BF
:100C9C00D3EF9400EE64809480400DE4FD0DBD050F
:080CAC00FCEF1F70EB1E80E855
:010CB400221D
:100CB500D3EF9400EE648094804015E4FCFD0DBDF7
:100CC50000010CBC01F8BD7EF5EF1F70E31E80E04E
:010CD50022FC
:0C0BFC00AB05AA048F828E83EB4A6036A2
:100C08007C007D0AAF82AE831209DE8C088D097CD8
:100C1800007D0AAF82AE831209DE8E838F82743024
:100C28002509F509E43508F508EB1B70011A743A33
:040C38002BF8A609E6
:030C3C0080C6224D
:10080000EC4D6011E8497017ED33EC3304600DE4F2
:10081000FCFFFEFD22E933E8330470F80209B01250
:10082000097B58046009E4CC248150062850090251
:1008300009BA2840030209B7C0E0EB4A7044B98006
:1008400006D0E0FB0209A6EF4E701CBD8008EBFF4E
:10085000EAFEE9FD80EBE98DF0A4FEE5F00208E98F
:10086000E9CDF9EAFEEBFFEF89F0A4FCE5F0CE89D3
:10087000F0A42EFFE435F0CD89F0A42DFEE435F090
:100880008067EF4E7005BD80D780C3EF8BF0A4ACBE
:10089000F0EE8BF0A42CFCE435F0F8EF8AF0A42CF9
:1008A000E5F038FCE433CB8DF0A42CFCE5F03BF80C
:1008B000EE8AF0A42CFCE5F038F8E433CF89F0A4FC
:1008C0002CFCE5F038CF3400CE89F0A42FFFE5F002
:1008D0003EFEE433C98DF0A42EFEE5F039CD8AF05A
:1008E000A42FFFE5F03EFEE43DFD33D0E0FB5007D2
:1008F0000BBB000F0209BAEC2CFCEF33FFEE33FE0A
:06090000ED33FD02099237
:1009060075F020800E75F010800575F0087D007E6C
:10091600007F003392D530D503120A14EC33401011
:10092600EF33FFEE33FEED33FDEC33FCD5F0ED2275
:0E093600E5F0247EA2D513CC92E7CDCEFF22B1
:10094400EDD2E7CD33EC3392D524814006E4FFFEAB
:10095400FDFC22FCE4CFCECDCC24E0501174FF800A
:10096400EDC3CC13CCCD13CDCE13CECF13CF0470A7
:07097400F030D5DE020A1489
:10097B00E9D2E7C933E833F892D5EDD2E7CD33ECC2
:07098B0033FC5002B2D5223B
:10099200EC30E7100FBF000C0EBE00080DBD0004C6
:1009A2000BEB6014A2D5EB13FCED92E7FD2274FF72
:1009B200FCFDFEFF22E480F8A2D574FF13FC7D80CB
:0309C200E480EFDF
:03000000020A777A
:0C0A7700787FE4F6D8FD75813D020ABED0
:1009C500BB010689828A83E0225002E722BBFE0230
:0909D500E32289828A83E4932263
:1009DE00C2D5EC30E709B2D5E4C39DFDE49CFCEE34
:1009EE0030E715B2D5E4C39FFFE49EFE120A22C380
:1009FE00E49DFDE49CFC8003120A2230D507C3E47B
:060A0E009FFFE49EFE22A2
:0E0A1400C3E49FFFE49EFEE49DFDE49CFC22F3
:100A8300020B84E493A3F8E493A34003F68001F2FA
:100A930008DFF48029E493A3F85407240CC8C33374
:100AA300C4540F4420C8834004F456800146F6DF43
:100AB300E4800B0102040810204080900C6BE47E5C
:100AC300019360BCA3FF543F30E509541FFEE49338
:100AD300A360010ECF54C025E060A840B8E493A3FF
:100AE300FAE493A3F8E493A3C8C582C8CAC583CA2A
:100AF300F0A3C8C582C8CAC583CADFE9DEE780BEE2
:010C93000060
:100A2200BC000BBE0029EF8DF084FFADF022E4CCB8
:100A3200F875F008EF2FFFEE33FEEC33FCEE9DEC81
:100A4200984005FCEE9DFE0FD5F0E9E4CEFD22EDC7
:100A5200F8F5F0EE8420D21CFEADF075F008EF2F11
:100A6200FFED33FD4007985006D5F0F222C398FD02
:050A72000FD5F0EA229F
:00000001FF
