:0C09AD0048454C4C4F00574F524C440042
:0209B900C1007B
:10088C00E4F5A01209331209817F887E1312091234
:10089C007F801209817BFF7A0979AD7D051208C52D
:1008AC007FC61209817BFF7A0979B37D051208C5D1
:0908BC007F887E1312091280CD21
:100933007F647E001208F97F381209817F0E120945
:0B094300817F011209817F8002098181
:100981008F0812094E8508A0C2801208F1C2827F29
:06099100057E000208F9DA
:100997008F0C12094E850CA0D2801208F1C2827FFB
:0609A700057E000208F9C4
:1008C5008B088A09890A8D0BE50BD39400401CAB74
:1008D50008AA09A90A120968FF1209977401250ACD
:0C08E500F50AE43509F509150B80DD2249
:10094E0075A0FFC280D281C2821208F5D28230A772
:0A095E0006C282D28280F7C2822214
:0808F100C281D2827F057E0066
:1008F900D3EF9400EE64809480400DE4FD0DBD05B6
:08090900FCEF1F70EB1E80E8FB
:0109110022C3
:10091200D3EF9400EE648094804015E4FCFD0DBD9D
:1009220000010CBC01F8BD7EF5EF1F70E31E80E0F4
:0109320022A2
:03000000020800F3
:0C080000787FE4F6D8FD758120020847DF
:10096800BB010689828A83E0225002E722BBFE028D
:09097800E32289828A83E49322C0
:10080C0002088CE493A3F8E493A34003F68001F26E
:10081C0008DFF48029E493A3F85407240CC8C333ED
:10082C00C4540F4420C8834004F456800146F6DFBC
:10083C00E4800B01020408102040809009B9E47E8A
:10084C00019360BCA3FF543F30E509541FFEE493B1
:10085C00A360010ECF54C025E060A840B8E493A378
:10086C00FAE493A3F8E493A3C8C582C8CAC583CAA3
:10087C00F0A3C8C582C8CAC583CADFE9DEE780BE5B
:0109BB00003B
:00000001FF
