:0300000002027D7C
:10010000C0E0C001C002C003E50775F014A4F50308
:100110007AC879FFD9FEDAFADBF6D003D002D00133
:10012000D0E022C0077590FF750705120100759099
:100130000FD00722C0E07590FFE590540FF500D076
:10014000E022C0E0C000C00712012312013475078D
:1001500001E8C4120100F5907507011201001201B7
:100160002312013475070112010048F54FC4440FF2
:10017000F590750705120100D007D000D0E022C02D
:10018000E0C000C007855007A851120142E54FF6B4
:1001900008DFF722C0E0C000C001C006A851AE5081
:1001A00012012375900FE590540FB50600501C28DE
:1001B000F50174835125120234E71202141202343D
:1001C0007507021201001201D780D175A001D00677
:1001D000D001D000D0E02275A038C280C281D28286
:1001E0005134C282513475A00CC280C281D2825176
:1001F00034C282513475A001C280C281D28251348E
:10020000C282513475A006C280C281D2825134C2EA
:1002100082513422F5A0D280C281D2825134C2826E
:100220005134513422F5A0C280C281D2825134C2ED
:0A02300082513422C000C0017801A1
:10023A0079FFD9FED8FAD001D00022C0E0EB5114E0
:10024A00D0E022C0E0EC5114D0E022C000C001C0CE
:10025A0002A851A952AA501AE6FB08E6186BF70938
:10026A0008DAF5E6FBA851E6186BF709D002D001C7
:10027A00D000221201D71202257581CF755003755D
:10028A005160754F0012017F7550037551607552A8
:0F029A007012025575500375517012019480FE59
:00000001FF
