:03000000020229D0
:100200007880765308765508764408764508764512
:1002100008765008765308764108764C08764708E9
:1002200076490876410876002212020075A0007512
:10023000900051BC51BC516451BC51BC51BC748143
:10024000518651BC900300519B51BC7A0078800AC2
:1002500008E670FB74109A1324C051867980518B84
:1002600051BC80FE75A038517975A00C517975A0EC
:1002700001517975A006517922C280C281D2825182
:10028000BCC28251BC22F5A0517922C0E0E4E760F3
:100290000751AB51BC0980F5D0E022C0E0E4936087
:1002A0000751AB51BCA380F5D0E022F5A0D280C2AB
:1002B00081D28251BCC28251BC51BC22C000C0015B
:0D02C000780179FFD9FED8FAD001D00022D4
:0F030000454520333337202D204C6162203200D9
:00000001FF
