:03000000020205F4
:10020000788076002212020075A000759000519847
:100210005198514051985198519874815162519818
:10022000900300517751987A0078800A08E670FBB5
:1002300074109A1324C0516279805167519880FEDE
:1002400075A038515575A00C515575A001515575C3
:10025000A006515522C280C281D2825198C28251D9
:100260009822F5A0515522C0E0E4E760075187517C
:10027000980980F5D0E022C0E0E4936007518751EF
:1002800098A380F5D0E022F5A0D280C281D282511D
:1002900098C2825198519822C000C001780179FF1C
:0902A000D9FED8FAD001D00022E9
:0B030000202020202048454C4C4F00DE
:00000001FF
