:0B0A82004141414141414141414100DF
:0A0A8D00011200010F00021000002A
:1008EE00120A301209E2AF90EF540FF590F50FB5E2
:1008FE001203D38001C34028AF90EF540FF590F54B
:10090E00127F80120A477BFF7A0A79827D0A1209CA
:10091E00747BFF7A0A79827D0A7C0012093A800381
:0C092E001209E27FF47E011209C180BAB8
:0300230002088C44
:10088C00C0E0C0F0C083C082C0D075D000C000C032
:10089C0001C002C003C004C005C006C007309827C1
:1008AC00C29885990EE511451070057FC0120A4754
:1008BC00AF0E120A5D0511E51170020510640A45B0
:1008CC00107004F510F511D007D006D005D004D067
:1008DC0003D002D001D000D0D0D082D083D0F0D0C1
:0208EC00E032F8
:100A30004398C05398FC758920758DCCD2AFC2AB5A
:070A4000D2ACD28ED29C2241
:1009E2007F647E001209A87F38120A477F0E120A1E
:0B09F200477F01120A477F80020A477E
:100A47008F091209FD8509A0C2801209A0C2827F01
:060A5700057E000209A863
:100A5D008F0D1209FD850DA0D2801209A0C2827FD3
:060A6D00057E000209A84D
:100974008B098A0A890B8D0CE50CD39400401CABBF
:1009840009AA0AA90B120A17FF120A5D7401250BA2
:0C099400F50BE4350AF50A150C80DD2295
:1009FD0075A0FFC280D281C2821209A4D28230A713
:0A0A0D0006C282D28280F7C2822264
:0809A000C281D2827F057E00B6
:1009A800D3EF9400EE64809480400DE4FD0DBD0506
:0809B800FCEF1F70EB1E80E84C
:0109C0002214
:0F0A73008F99120000A200929B3099FDC2992228
:10093A008B098A0A890B8C0C8D0DD3E50D9400E581
:10094A000C648094804022AB09AA0AA90B120A17E8
:10095A00FF120A737401250BF50BE4350AF50AE553
:0A096A000D150D70D5150C80D1227B
:1009C100D3EF9400EE648094804015E4FCFD0DBDEE
:1009D10000010CBC01F8BD7EF5EF1F70E31E80E045
:0109E10022F3
:03000000020800F3
:0C080000787FE4F6D8FD758120020847DF
:100A1700BB010689828A83E0225002E722BBFE02DD
:090A2700E32289828A83E4932210
:10080C000208EEE493A3F8E493A34003F68001F20C
:10081C0008DFF48029E493A3F85407240CC8C333ED
:10082C00C4540F4420C8834004F456800146F6DFBC
:10083C00E4800B0102040810204080900A8DE47EB5
:10084C00019360BCA3FF543F30E509541FFEE493B1
:10085C00A360010ECF54C025E060A840B8E493A378
:10086C00FAE493A3F8E493A3C8C582C8CAC583CAA3
:10087C00F0A3C8C582C8CAC583CADFE9DEE780BE5B
:010A9700005E
:00000001FF
