:03000000020200F9
:1002000078907445F6087445F6087420F60874333F
:10021000F6087433F6087437F6087420F608742D5F
:10022000F6087420F608744CF6087441F608744217
:10023000F6087420F6087434F6087400F678A07492
:1002400053F6087448F6087452F6087441F60874B8
:1002500059F675A00075900051E751E7517C51E7C0
:1002600051E751E7748151B951E7789051D951E77D
:1002700074C151B951E778A051D980FE75A038C238
:1002800080C281D28251E7C28251E775A00CC28040
:10029000C281D28251E7C28251E775A001C280C2F9
:1002A00081D28251E7C28251E775A006C280C28125
:1002B000D28251E7C28251E722F5A0C280C281D228
:1002C0008251E7C28251E722F5A0D280C281D28258
:1002D00051E7C28251E751E722C0E0E4E6600551F0
:1002E000C80880F7D0E022C000C001780179FFD9AA
:0802F000FED8FAD001D0002273
:00000001FF
