:100000000200037581CF755002755160754F001263
:10001000005A755003755160755270120029755061
:100020000375517012009480FEC001C002C000C070
:1000300003C0F0AA50A951A8528903EA28F9E6F7AB
:100040008B010AE70967F608D9F9D0F0D003D00090
:10005000D002D00122A950A85122120055120067E7
:10006000E54FF608D9F72212007EEFFE12008775E1
:10007000900F1200BD12007EEEC44FF54F22759016
:10008000FFE590540FFF227A647BC87CFFDCFEDB27
:10009000FADAF6221200CE1200BDAA50A8511200C0
:1000A0007EFD9A500EE82DF874851200F0E61201DC
:1000B0000580E475A00111E31200BD80DAC0057B64
:1000C000287CC87DFFDDFEDCFADBF6D0052275A0BA
:1000D0003811E375A00C11E375A00111E375A006BA
:1000E00011E322C280C281D2823116C2823116222D
:1000F000F5A011E322C0E0E493600731053116A3B7
:1001000080F5D0E022F5A0D280C281D2823116C221
:10011000823116311622C000C001780179FFD9FE64
:02012000D8FA0B
:05012200D001D0002215
:1003000048454C4C4F00574F524C4400C0F0C00081
:10031000C001C002C003C004FC8550F0A870E654C0
:10032000F003030303FBC3940AEB400224072430C9
:10033000120105E6540FFBC3940AEB400224072484
:1003400030120105081200BD1200CED5F0D0FCD04D
:0C03500004D003D002D001D000D0F02275
:00000001FF
