:0514EE00252E3266000E
:1013710002390000C109C10AC10B022B0000023C65
:1013810000000233000002270000023100000129A1
:1013910000013E00043F0000000004350000000091
:1013A100042D000000000A470000000000000000BA
:0213B10000003A
:1012EE00E4F5B0F5A05390EF5380F0121480121471
:1012FE00651214E0C29475C5013009FDC20975C5A9
:10130E00803009FDE5225403F52AC209E4F5C53003
:10131E0009FD85223BC209D294E52AFE7C00E42514
:10132E003BF52CEC3EF52B7554FF7555147556EEAA
:10133E0085385A8537598536588535577B007A005A
:10134E007947120DC07B007A0079477D101213B4D5
:10135E007F887E131214281214657FE87E03121400
:03136E0028809143
:03004B0002144953
:10144900C0E0C0D075D000C007AFC4EF24807005DC
:0C14590085C522D209D007D0D0D0E032E7
:03000B000211D30C
:1011D300C0E0C0F0C083C082C0D075D000C000C0E2
:1011E30001C002C003C004C005C006C007C28C759D
:1011F3008C3C758AB0308D4CAB30AA2FA92EA82D0C
:10120300C000C001C002C003AC2BAD2CEC12099D81
:10121300D003D002D001D0001208078F308E2F8D5B
:101223002E8C2D0532E53270020531640A4531708A
:1012330011FBFA792078411208FB8F388E378D36EF
:101243008C35C28DD007D006D005D004D003D00290
:0F125300D001D000D0D0D082D083D0F0D0E03204
:10148000D29443C32043C30143C31053C3F743C3A0
:0A1490000443B104D2AF43C340226D
:0E14E000758C3C758AB0758901D2A9D28C2218
:101465007F647E0012140F7F381214B47F0E12149D
:0B147500B47F011214B47F800214B495
:1014B4008F5112149A8551A0C280121407C2827FE0
:0614C400057E0002140F7A
:1014CA008F5512149A8555A0D280121407C2827FB2
:0614DA00057E0002140F64
:1013B4008B518A5289538D54E554D39400401CAB0D
:1013C40051AA52A953120CC8FF1214CA740125530E
:0C13D400F553E43552F552155480DD222B
:10149A0075A0FFC280D281C28212140BD28230A7F9
:0A14AA0006C282D28280F7C28222BD
:08140700C281D2827F057E0044
:10140F00D3EF9400EE64809480400DE4FD0DBD0594
:08141F00FCEF1F70EB1E80E8DA
:0114270022A2
:10142800D3EF9400EE648094804015E4FCFD0DBD7C
:1014380000010CBC01F8BD7EF5EF1F70E31E80E0D3
:011448002281
:10080000020A0BE86480F8E933E83360110460F011
:10081000ED33EC337009E8FCE9FDEAFEEBFF22045E
:1008200060DED3EB9FEA9EE99DE8C2E78CF0C2F759
:1008300095F0400CE8CCF8E9CDF9EACEFAEBCFFB25
:100840001209D685D0F05804700320D5B3E804709F
:10085000075002B2D5020A1592D5EC0460F7E4CC39
:10086000C0E0C398F8603B94186008400DD0E0FBEE
:100870000209EDE4FBFAC9FC8028E830E406E4C98B
:10088000FBE4CAFCE830E305E4C9CACBFCE8540742
:100890006010F8C3E913F9EA13FAEB13FBEC13FC4D
:1008A000D8F130F52FC3E49CFCEF9BFFEE9AFEEDF0
:1008B00099FDD0E0FBEF4E4D4C701222DB03020A93
:1008C00012EC2CFCEF33FFEE33FEED33FDED30E7A1
:1008D000EB0209EDEF2BFFEE3AFEED39FDD0E0FB28
:1008E00050130BBB0003020A15ED13FDEE13FEEFD0
:0808F00013FFEC13FC0209EDFB
:1008F800020A15EC5D046005E859047003020A0B4E
:100908001209D6580460F6EC4860F2EC7004FDFE5B
:10091800FF22C860DB2481C85009C39860025006D2
:10092800020A129850CAF582E9294B4A7005AB822F
:10093800020A0175F0007C1A7880C3EF9BEE9AEDED
:1009480099400DC3EF9BFFEE9AFEED99FDE842F04A
:10095800DC23ACF0D0E0FFD0E0FED0E0FDAB82209D
:10096800E7101BEB60BAEC2CFCEF33FFEE33FEED27
:1009780033FD0209EDE803F830E705C0F075F00033
:10098800EF2FFFEE33FEED33FD40B830E7C280AA0B
:1009980075F020800E75F010800575F0087D007EDA
:1009A800007F003392D530D503120D20EC33401070
:1009B800EF33FFEE33FEED33FDEC33FCD5F0ED22E3
:0E09C800E5F0247EA2D513CC92E7CDCEFF221F
:100D6400E5682454F8E6056822785130070278547F
:100D7400E475F001120D2E020CC82000EB7F2ED278
:100D8400008018EF540F2490D43440D4FF30040B67
:100D9400EF24BFB41A0050032461FFE56960021513
:100DA40069056CE56C7002056B30070D7851E475CC
:100DB400F001120D2EEF020D0E0213E07403D207A0
:100DC4008003E4C207F5688B518A528953E4F569BC
:100DD400F56BF56CE56960077F20120D9F80F57552
:100DE4006AFFC201C200C202C203C205C206C2082F
:100DF400120D6DFF700D3007057F00120DB0AF6C42
:100E0400AE6B22B4255FC2D5C204120D6DFF24D08F
:100E1400B40A00501A75F00A786930D50508B6FF8F
:100E24000106C6A426F620D5047002D20380D92474
:100E3400CFB41A00EF5004C2E5D20402109DD201CF
:100E440080C6D20080C0D20280BCD2D580BAD2057E
:100E540080B47F20120D9F2002077401B569004001
:100E6400F1120D64FF120D9F020DD8D208D2068034
:100E740095120D64FB120D64FA120D64F94A4B705D
:100E84000679947A117BFF20022EE569602A7E00A0
:100E94008E82758300120CE160060EEE656A70F0B6
:100EA400C2D5EBC0E0EAC0E0E9C0E0EE1210FDD02C
:100EB400E0F9D0E0FAD0E0FB120CC8FF60AAEBC066
:100EC400E0EAC0E0E9C0E0120D9FD0E02401F9D0CF
:100ED400E03400FAD0E0FBE56A0460DCD56AD9802E
:100EE40087D20280A21210E060F7E56A7001041252
:100EF4000A20A96A600DE56A600914F56A1211876F
:100F0400EF60F3EA30E702F404C3995077EAF4257A
:100F14006A0430E701E404F56A800D1210E060C150
:100F2400EA056A256A120A20EA7867F630E701E4DE
:100F3400256A04D56A04200501141210FDE4C0E0FA
:100F44001211877867E6601320E70714F6120D87FD
:100F5400802204F6D0E014C0E07F00120D87E56A19
:100F64006007120D7E156A800B300503120D7ED0CA
:100F7400E0020DD8D0E00480C51210E060A0E56A5C
:100F840004120A207867EAF6E56A20050260010483
:050F940024041210FD11
:100F990074FF04C0E0121187120D87E56A2005026B
:100FA9006003120D7ED0E0B56AE87F45120D917895
:100FB90067E67F2B30E7047F2DF404C0E0120D9F14
:100FC900D0E075F00A84C0F0120D88D0E0120D88C7
:100FD900020DD8791080027908C206C2088008D2A9
:100FE900D5790A8004790AC2D5E56A047002F56ADE
:100FF900E4FAFDFEFF120D64FC7B08200113120DBB
:1010090064FD7B1030000A120D64FE120D64FF7B33
:1010190020EC3382D592D55013C3E43000069FFFEC
:10102900E49EFEE42001039DFDE49CFCE4CBF8C2B0
:1010390001EC700CCFCECDCCE824F8F870F3801712
:10104900C3EF33FFEE33FEED33FDEC33FCEB33FB43
:10105900994002FB0FD8E9EB300105F8D0E0C4480C
:10106900B201C0E00AEC4D4E4F78207B0070C2EA15
:10107900B56A0040BCC0E01210FFD0F0D0E02001FA
:1010890004C4C0E0C4B201C0F0120D88D0F0D5F09C
:10109900EB020DD8120D3E0E75530FDC580E464C5F
:1010A9000E42420FE04F0FE8440FE8490E5B430F31
:1010B900EE550F1F460F7D450EE94711B4500E4AF4
:1010C9002D0E4E2E0E712B0E52230E6F20119D2ABE
:1010D9000E0A4800000E69E56AB4FF03756A061234
:1010E9000D64FC120D64FD120D64FE120D64FF788F
:1010F90060020A4F790AA2D5200314300509B910F4
:10110900020404B9080104A2D520060250010420F2
:1011190002689202B569005034C0E07F203003199B
:101129007F30A20272067205500F121156C202C216
:1011390006C205C2087F30800F300503E9C0E012FE
:101149000D9F300503D0E0F9D0E0B569CC30051723
:101159007F30B9100C120D9F7F583004077F7880BB
:1011690003B90803120D9F3002057F2D020D9F7FE1
:10117900202008F87F2B2006F322920280CF7F00DF
:10118900B4070050052460F8E6FF22286E756C6CE0
:101199002900D201120D643001F8C201786930D5F5
:1011A9000108F6020E0A2D50434958120D64240312
:1011B900B405004001E49011AF93120D90743A12F6
:0A11C9000D90D203756904020FDCDB
:1009D600E9D2E7C933E833F892D5EDD2E7CD33EC67
:0709E60033FC5002B2D522E0
:1009ED00EC30E7100FBF000C0EBE00080DBD00046B
:1009FD000BEB6014A2D5EB13FCED92E7FD2274FF17
:100A0D00FCFDFEFF22E480F8A2D574FF13FC7D806F
:030A1D00E480EF83
:100A2000F920E72824F950037907E4F42402FB189D
:100A3000DBFDE624FB5014E9600DE4F618E604F64D
:0F0A4000B40A08E4F6D9F57401F60A22C2D522E9
:100A4F00ED33EC3392D5FA602AB4FF33EDC2E77B76
:100A5F00FF60067A0A7974E4227A0A797D20D50438
:100A6F007A0A7978224E614E002B494E46002D4965
:100A7F004E4600E47A08F608DAFC7B00740722E899
:100A8F00C0E0ECC0E0EDC0E0EEC0E0EFC0E0EA7522
:100A9F00F010A4CAABF075F04DA42BFBE435F0FCBD
:100AAF00EA2410FAEB34C5FBEC34D9FCEDC2E7FFB6
:100ABF0075F056A4F42411C5F0F434C58FF0A42AB0
:100ACF00E5F03BE43CF620E714120C88D0E0FFD0B1
:100ADF00E0FED0E0FDD0E0FC1208FB8014F404121D
:100AEF000C88D0E0FFD0E0FED0E0FDD0E0FC120B90
:100AFF0052D0E0F8E6FAEDD2E7CD33EC332482FBA7
:100B0F00E4C3CF33CFCE33CECD33CD33DBF37B073F
:100B1F0075F00A846004F6081B0AE5F0F6088FF0FA
:100B2F00740AA4FFACF08EF0740AA42CFEACF05043
:100B3F00010C8DF0740AA42CFDE435F0F608DBDE11
:030B4F0074072206
:100B5200EC4D6011E8497017ED33EC3304600DE49D
:100B6200FCFFFEFD22E933E8330470F8020A0B129F
:100B720009D658046009E4CC2481500628500902A1
:100B82000A15284003020A12C0E0EB4A7044B980F9
:100B920006D0E0FB020A01EF4E701CBD8008EBFF9D
:100BA200EAFEE9FD80EBE98DF0A4FEE5F0020C3BE4
:100BB200E9CDF9EAFEEBFFEF89F0A4FCE5F0CE897E
:100BC200F0A42EFFE435F0CD89F0A42DFEE435F03B
:100BD2008067EF4E7005BD80D780C3EF8BF0A4AC69
:100BE200F0EE8BF0A42CFCE435F0F8EF8AF0A42CA4
:100BF200E5F038FCE433CB8DF0A42CFCE5F03BF8B7
:100C0200EE8AF0A42CFCE5F038F8E433CF89F0A4A6
:100C12002CFCE5F038CF3400CE89F0A42FFFE5F0AC
:100C22003EFEE433C98DF0A42EFEE5F039CD8AF004
:100C3200A42FFFE5F03EFEE43DFD33D0E0FB50077C
:100C42000BBB000F020A15EC2CFCEF33FFEE33FE58
:060C5200ED33FD0209ED87
:100C58003F8000004120000042C80000447A0000A4
:100C6800461C400047C35000497424004B18968026
:100C78004CBEBC205A0E1BCA6753C21C749DC5AE1D
:100C8800FB60065407601C2323120CB6EB54386033
:100C980009120CA2120CB1120B52ECF8EDF9EEFA93
:100CA800EFCB22EB120CB180F1543803241C900CCA
:100CB80058FE93FC0EEE93FD0EEE930ECE93FF229C
:0300000002126287
:0C126200787FE4F6D8FD75816C0212A9BB
:100CC800BB010689828A83E0225002E722BBFE022A
:090CD800E32289828A83E493225D
:100CE100BB010CE58229F582E5833AF583E02250C8
:100CF10006E92582F8E622BBFE06E92582F8E22212
:0D0D0100E58229F582E5833AF583E493222B
:100D0E00BB010689828A83F0225002F722BBFE01C4
:020D1E00F322BE
:0E0D2000C3E49FFFE49EFEE49DFDE49CFC22E4
:100D2E00FAE6FB0808E6F925F0F618E6CA3AF622C6
:100D3E00D083D082F8E4937012740193700DA3A344
:100D4E0093F8740193F5828883E473740293686058
:060D5E00EFA3A3A380DF58
:1013E000EFB40A07740D1213EB740A309811A89920
:1013F000B8130CC2983098FDA899C298B811F6306D
:0714000099FDC299F5992244
:10126E000212EEE493A3F8E493A34003F68001F296
:10127E0008DFF48029E493A3F85407240CC8C33381
:10128E00C4540F4420C8834004F456800146F6DF50
:10129E00E4800B0102040810204080901371E47E5C
:1012AE00019360BCA3FF543F30E509541FFEE49345
:1012BE00A360010ECF54C025E060A840B8E493A30C
:1012CE00FAE493A3F8E493A3C8C582C8CAC583CA37
:1012DE00F0A3C8C582C8CAC583CADFE9DEE780BEEF
:0113B3000039
:00000001FF
