:1009EF00C100C101C102022C000002310000022E21
:1009FF00000002280000012A000133000434000027
:060A0F00000002220000BD
:10097A00E4F5B0F5A05390EF5380F0120A8F120AF3
:10098A0074120AC3C29475C5013000FDC20075C550
:10099A00803000FDE5215403F52BC200E4F5C53093
:1009AA0000FD852130C200D294E52BFE7C00E425AF
:0909BA0030F52DEC3EF52C80CB4C
:03004B00020A584E
:100A5800C0E0C0D075D000C007AFC4EF24807005D7
:0C0A680085C521D200D007D0D0D0E032EC
:03000B00020930B7
:10093000C0E0C0F0C0D075D000C000C004C005C089
:1009400006C007758C00438C3C758C00438AB0054B
:1009500023E52370020522AE22FF7C007D0A1208E7
:1009600019ED4C7004F522F523D007D006D005D040
:0A09700004D000D0D0D0F0D0E03267
:100A8F00D29443C32043C30143C31053C3F743C39B
:0A0A9F000443B104D2AF43C3402268
:100AC300758C00438C3C758A00438AB0438901D2FC
:080AD300AF43B1024388102279
:100A74007F647E00120A1E7F38120ADB7F0E120A80
:0B0A8400DB7F01120ADB7F80020ADB2F
:100ADB008F0D120AA9850DA0C280120A16C2827F41
:060AEB00057E00020A1E58
:100AF1008F0C120AA9850CA0D280120A16C2827F1D
:060B0100057E00020A1E41
:1009C3008B088A09890A8D0BE50BD39400401CAB75
:1009D30008AA09A90A120800FF120AF17401250ADC
:0C09E300F50AE43509F509150B80DD224A
:100AA90075A0FFC280D281C282120A1AD28230A7EF
:0A0AB90006C282D28280F7C28222B8
:080A1600C281D2827F057E003F
:100A1E00D3EF9400EE64809480400DE4FD0DBD058F
:080A2E00FCEF1F70EB1E80E8D5
:010A3600229D
:100A3700D3EF9400EE648094804015E4FCFD0DBD77
:100A470000010CBC01F8BD7EF5EF1F70E31E80E0CE
:010A5700227C
:030000000208A44F
:0C08A400787FE4F6D8FD75813B0208EB7C
:10080000BB010689828A83E0225002E722BBFE02F6
:09081000E32289828A83E4932229
:10081900C2D5EC30E709B2D5E4C39DFDE49CFCEEFA
:1008290030E715B2D5E4C39FFFE49EFE12084FC31B
:10083900E49DFDE49CFC800312084F30D507C3E416
:060849009FFFE49EFE2269
:1008B00002097AE493A3F8E493A34003F68001F2DB
:1008C00008DFF48029E493A3F85407240CC8C33349
:1008D000C4540F4420C8834004F456800146F6DF18
:1008E000E4800B01020408102040809009EFE47EB0
:1008F000019360BCA3FF543F30E509541FFEE4930D
:10090000A360010ECF54C025E060A840B8E493A3D3
:10091000FAE493A3F8E493A3C8C582C8CAC583CAFE
:10092000F0A3C8C582C8CAC583CADFE9DEE780BEB6
:010A150000E0
:10084F00BC000BBE0029EF8DF084FFADF022E4CC8D
:10085F00F875F008EF2FFFEE33FEEC33FCEE9DEC56
:10086F00984005FCEE9DFE0FD5F0E9E4CEFD22ED9C
:10087F00F8F5F0EE8420D21CFEADF075F008EF2FE6
:10088F00FFED33FD4007985006D5F0F222C398FDD7
:05089F000FD5F0EA2274
:00000001FF
