:0300000002022BCE
:10020000C00078607653087655087644087645082D
:10021000764508765008765308764108764C08767D
:100220004708764908764108D000221202007590EE
:100230000075A000713C713C518E713C713C713C69
:10024000740151CB713C7590F0754D0312035A75D2
:100250009000754D0112035A714DED7590F0754D7A
:100260000312035A759000754D0112035A714DB572
:1002700005E8C4F951DA713C754D0512035A1202B2
:10028000DA713C754D0512035A02024080FE75A0DA
:1002900038C280C281D282713CC282713C75A00C8E
:1002A000C280C281D282713CC282713C75A001C2FF
:1002B00080C281D282713CC282713C75A006C2802C
:1002C000C281D282713CC282713C22F5A0C280C23E
:1002D00081D282713CC282713C22C0E0C007C0065C
:1002E000C0047F807E04EF51CB713CE4E712032B06
:1002F00012033C0F0F0F0F09DEEC7FC07E04EF519D
:10030000CB713CE4E712032B12033C0F0F0F0F09D4
:10031000DEECD004D006D007D0E022C0E0E4936049
:0303200007712B37
:10032300713CA380F5D0E022F5A0D280C281D282B5
:10033300713CC282713C713C22C000C001780179DA
:10034300FFD9FED8FAD001D00022C0E075900FE5A6
:1003530090540FFDD0E022C0D0C001C002C003C042
:1003630004C0E0AC4D7B14007AC879FFD9FEDAFAF9
:10037300DBF5DCF1D0E0D004D003D002D001D0D043
:010383002257
:00000001FF
