:03000000020100FA
:03000B0002013DB2
:03000300020141B6
:1003000050554C534520574944544800434F554E8F
:050310005420495300D8
:10010000758909758A00758C0075A8837E001201B7
:10011000461201377480318331B190030031A3312D
:10012000B174C0318331B190030C31A331B11201EC
:10013000C21201FA020100D28C3097FD22C28D0E4C
:1001400032C2A8D2973275A038C280C281D2823121
:10015000B1C28231B175A00CC280C281D28231B1EC
:10016000C28231B175A001C280C281D28231B1C2D6
:100170008231B175A006C280C281D28231B1C28201
:1001800031B122F5A0C280C281D28231B1C28231A6
:10019000B122F5A0D280C281D28231B1C28231B106
:1001A00031B122C0E0E49360053192A380F7D0E042
:1001B00022C000C001780179FFD9FED8FAD001D061
:1001C0000022EE1201D0E58C1201D0E58A1201D096
:1001D000C003FB54F0C41201E8120192EB540F1259
:1001E00001E8120192D00322C001F9C3940AE95038
:1001F00004243080022437D00122C0E0C001C002B4
:10020000C0037B287AC879FFD9FEDAFADBF6D0037F
:07021000D002D001D0E02272
:00000001FF
