:0E0E2F00566F6C746167653A2000206D5600A6
:100D1D00C100C101C102022E0000023300000230E9
:100D2D0000000226000001280001350004360000F5
:080D3D000000042A0000000080
:100C3600E4F5B0F5A05390EF5380F0120DBF120DFE
:100C4600A4120E1FC29475C5013000FDC20075C501
:100C5600803000FDE5215403F529C200E4F5C530D6
:100C660000FD852132C200D294E529FE7C00E425F0
:100C760032F52FEC3EF52E7D04AF34AE33120CAEBA
:100C86007BFF7A0E792F7D09120CF17B007A0079B1
:100C96003A7D04120CF17BFF7A0E79397D03120C32
:080CA600F17F80120DF3809C28
:03004B00020D881B
:100D8800C0E0C0D075D000C007AFC4EF24807005A4
:0C0D980085C521D200D007D0D0D0E032B9
:03000B00020B17CE
:100B1700C0E0C0F0C083C082C0D075D000C000C0A4
:100B270001C002C003C004C005C006C007758C3CE5
:100B3700758AB00528E52F2527F527E52E3526F5F3
:100B470026E52875F00A84E5F0703DAC26AD27EC64
:100B57001209ABE4FBFA79FA78431208008F2D8E5D
:100B67002C8D2B8C2A7B007AC0797F784412090957
:100B77008F2D8E2C8D2B8C2A1209E48E338F347592
:100B87002600752700752800D007D006D005D004A9
:100B9700D003D002D001D000D0D0D082D083D0F003
:030BA700D0E03269
:100DBF00D29443C32043C30143C31053C3F743C368
:0A0DCF000443B104D2AF43C3402235
:100E1F00758C3C758AB0758901D2AFD2A9D28C225C
:100DA4007F647E00120D4E7F38120DF37F0E120DFC
:0B0DB400F37F01120DF37F80020DF3AE
:100DF3008F08120DD98508A0C280120D46C2827FCA
:060E0300057E00020D4E09
:100E09008F0C120DD9850CA0D280120D46C2827F9B
:060E1900057E00020D4EF3
:100CF1008B088A09890A8D0BE50BD39400401CAB44
:100D010008AA09A90A120A65FF120E097401250A27
:0C0D1100F50AE43509F509150B80DD2218
:100DD90075A0FFC280D281C282120D4AD28230A789
:0A0DE90006C282D28280F7C2822285
:080D4600C281D2827F057E000C
:100D4E00D3EF9400EE64809480400DE4FD0DBD055C
:080D5E00FCEF1F70EB1E80E8A2
:010D6600226A
:100D6700D3EF9400EE648094804015E4FCFD0DBD44
:100D770000010CBC01F8BD7EF5EF1F70E31E80E09B
:010D87002249
:0C0CAE00AB05AA048F828E83EB4A6036EF
:100CBA007C007D0AAF82AE83120A7E8C088D097C85
:100CCA00007D0AAF82AE83120A7E8E838F827430D1
:100CDA002509F509E43508F508EB1B70011A743A81
:040CEA002BF8A60934
:030CEE0080C6229B
:10080000EC4D6011E8497017ED33EC3304600DE4F2
:10081000FCFFFEFD22E933E8330470F8020A5012AF
:100820000A1B58046009E4CC2481500628500902B0
:100830000A5A284003020A57C0E0EB4A7044B980C4
:1008400006D0E0FB020A46EF4E701CBD8008EBFFAD
:10085000EAFEE9FD80EBE98DF0A4FEE5F00208E98F
:10086000E9CDF9EAFEEBFFEF89F0A4FCE5F0CE89D3
:10087000F0A42EFFE435F0CD89F0A42DFEE435F090
:100880008067EF4E7005BD80D780C3EF8BF0A4ACBE
:10089000F0EE8BF0A42CFCE435F0F8EF8AF0A42CF9
:1008A000E5F038FCE433CB8DF0A42CFCE5F03BF80C
:1008B000EE8AF0A42CFCE5F038F8E433CF89F0A4FC
:1008C0002CFCE5F038CF3400CE89F0A42FFFE5F002
:1008D0003EFEE433C98DF0A42EFEE5F039CD8AF05A
:1008E000A42FFFE5F03EFEE43DFD33D0E0FB5007D2
:1008F0000BBB000F020A5AEC2CFCEF33FFEE33FE69
:06090000ED33FD020A3296
:10090600020A5AEC5D046005E859047003020A50B5
:10091600120A1B580460F6EC4860F2EC7004FDFE07
:10092600FF22C860DB2481C85009C39860025006C4
:10093600020A579850CAF582E9294B4A7005AB82DC
:10094600020A4675F0007C1A7880C3EF9BEE9AED9A
:1009560099400DC3EF9BFFEE9AFEED99FDE842F03C
:10096600DC23ACF0D0E0FFD0E0FED0E0FDAB82208F
:10097600E7101BEB60BAEC2CFCEF33FFEE33FEED19
:1009860033FD020A32E803F830E705C0F075F000DF
:10099600EF2FFFEE33FEED33FD40B830E7C280AAFD
:1009A60075F020800E75F010800575F0087D007ECC
:1009B600007F003392D530D503120AB4EC334010D1
:1009C600EF33FFEE33FEED33FDEC33FCD5F0ED22D5
:0E09D600E5F0247EA2D513CC92E7CDCEFF2211
:1009E400EDD2E7CD33EC3392D524814006E4FFFE0B
:1009F400FDFC22FCE4CFCECDCC24E0501174FF806A
:100A0400EDC3CC13CCCD13CDCE13CECF13CF047006
:070A1400F030D5DE020AB448
:100A1B00E9D2E7C933E833F892D5EDD2E7CD33EC21
:070A2B0033FC5002B2D5229A
:100A3200EC30E7100FBF000C0EBE00080DBD000425
:100A42000BEB6014A2D5EB13FCED92E7FD2274FFD1
:100A5200FCFDFEFF22E480F8A2D574FF13FC7D802A
:030A6200E480EF3E
:03000000020BAA46
:0C0BAA00787FE4F6D8FD75813D020BF168
:100A6500BB010689828A83E0225002E722BBFE028F
:090A7500E32289828A83E49322C2
:100A7E00C2D5EC30E709B2D5E4C39DFDE49CFCEE93
:100A8E0030E715B2D5E4C39FFFE49EFE120AC2C33F
:100A9E00E49DFDE49CFC8003120AC230D507C3E43A
:060AAE009FFFE49EFE2202
:0E0AB400C3E49FFFE49EFEE49DFDE49CFC2253
:100BB600020C36E493A3F8E493A34003F68001F213
:100BC60008DFF48029E493A3F85407240CC8C33340
:100BD600C4540F4420C8834004F456800146F6DF0F
:100BE600E4800B0102040810204080900D1DE47E75
:100BF600019360BCA3FF543F30E509541FFEE49304
:100C0600A360010ECF54C025E060A840B8E493A3CA
:100C1600FAE493A3F8E493A3C8C582C8CAC583CAF5
:100C2600F0A3C8C582C8CAC583CADFE9DEE780BEAD
:010D450000AD
:100AC200BC000BBE0029EF8DF084FFADF022E4CC18
:100AD200F875F008EF2FFFEE33FEEC33FCEE9DECE1
:100AE200984005FCEE9DFE0FD5F0E9E4CEFD22ED27
:100AF200F8F5F0EE8420D21CFEADF075F008EF2F71
:100B0200FFED33FD4007985006D5F0F222C398FD61
:050B12000FD5F0EA22FE
:00000001FF
