:10090100022E0000C100C101C102022A0000023111
:100911000000022C00000226000001280001330023
:0609210004340000000098
:10088C00E4F5B0F5A05390EF5380F01209A11209D2
:10089C0086120A2DC29475C5013000FDC20075C5C3
:1008AC00803000FDE5215403F529C200E4F5C53084
:1008BC0000FD852130C200D294E529FE7C00E425A0
:0908CC0030F52BEC3EF52A80CB3F
:03004B0002096A3D
:10096A00C0E0C0D075D000C007AFC4EF24807005C6
:0C097A0085C521D200D007D0D0D0E032DB
:03000B00020A1ACC
:100A1A00C0E0758C3C758AB0052FE52F7002052E53
:030A2A00D0E032E7
:1009A100D29443C32043C30143C31053C3F743C38A
:0A09B1000443B104D2AF43C3402257
:0E0A2D00758C3C758AB0758901D2A9D28C22D5
:100986007F647E001209307F381209EE7F0E12094D
:0B099600EE7F011209EE7F800209EEE7
:1009EE008F0D1209BB850DA0C280120928C2827F0D
:0609FE00057E0002093035
:100A04008F0C1209BB850CA0D280120928C2827FE8
:060A1400057E000209301E
:1008D5008B088A09890A8D0BE50BD39400401CAB64
:1008E50008AA09A90A1209D5FF120A047401250AE2
:0C08F500F50AE43509F509150B80DD2239
:1009BB0075A0FFC280D281C28212092CD28230A7CD
:0A09CB0006C282D28280F7C28222A7
:08092800C281D2827F057E002E
:10093000D3EF9400EE64809480400DE4FD0DBD057E
:08094000FCEF1F70EB1E80E8C4
:01094800228C
:10094900D3EF9400EE648094804015E4FCFD0DBD66
:1009590000010CBC01F8BD7EF5EF1F70E31E80E0BD
:01096900226B
:03000000020800F3
:0C080000787FE4F6D8FD75813B020847C4
:1009D500BB010689828A83E0225002E722BBFE0220
:0909E500E32289828A83E4932253
:10080C0002088CE493A3F8E493A34003F68001F26E
:10081C0008DFF48029E493A3F85407240CC8C333ED
:10082C00C4540F4420C8834004F456800146F6DFBC
:10083C00E4800B0102040810204080900901E47E42
:10084C00019360BCA3FF543F30E509541FFEE493B1
:10085C00A360010ECF54C025E060A840B8E493A378
:10086C00FAE493A3F8E493A3C8C582C8CAC583CAA3
:10087C00F0A3C8C582C8CAC583CADFE9DEE780BE5B
:0109270000CF
:00000001FF
