:030000000208A44F
:0C08A400787FE4F6D8FD7581200208EB97
:060B59004545333337006F
:0E0B4A00020B0000020D0000C10002090000B5
:1009D700120AF7120AC2A200309001B34003D38073
:1009E70001C34023A29092007F80120B0F7BFF7AF6
:1009F7000B79597D05120A547BFF7A0B79597D05CE
:100A07007C00120A1A8003120AC27FF47E01120ABE
:030A1700A180C3F8
:030023000209309F
:10093000C0E0C0F0C083C082C0D075D000C000C08D
:1009400001C002C003C004C005C006C0073098271C
:10095000C298859908E50A450970057FC0120B0FFA
:10096000AF08120B25050AE50A7002050964054562
:10097000097004F509F50AD007D006D005D004D0D7
:1009800003D002D001D000D0D0D082D083D0F0D01C
:02099000E03253
:100AF7007598C0758920758DCCD2AFC2ABD2ACD2F8
:080B07008EC299C298D29C2213
:100AC2007F647E00120A887F38120B0F7F0E120B92
:0B0AD2000F7F01120B0F7F80020B0F43
:100B0F008F14120ADD8514A0C280120A80C2827F60
:060B1F00057E00020A88B9
:100B25008F14120ADD8514A0D280120A80C2827F3A
:060B3500057E00020A88A3
:100A54008B0F8A1089118D12E512D39400401CABC0
:100A64000FAA10A911120800FF120B2574012511F9
:0C0A7400F511E43510F510151280DD229C
:100ADD0075A0FFC280D281C282120A84D28230A751
:0A0AED0006C282D28280F7C2822284
:080A8000C281D2827F057E00D5
:100A8800D3EF9400EE64809480400DE4FD0DBD0525
:080A9800FCEF1F70EB1E80E86B
:010AA0002233
:0F0B3B008F99120992A201929B3099FDC29922C3
:100A1A008B0F8A1089118C128D13D3E5139400E57C
:100A2A0012648094804022AB0FAA10A91112080008
:100A3A00FF120B3B74012511F511E43510F510E591
:0A0A4A0013151370D5151280D12288
:100AA100D3EF9400EE648094804015E4FCFD0DBD0D
:100AB10000010CBC01F8BD7EF5EF1F70E31E80E064
:010AC1002212
:10099200D201E4F50BF50CF50D750E01EF13920182
:1009A200300108050CE50C7002050BEFA2E713FFFE
:1009B200050EE50E7002050D6409450D70DEAE0BE5
:1009C200AF0C7C007D02120819ED64014C7003D259
:0509D2000122C2012218
:1008B0000209D7E493A3F8E493A34003F68001F27E
:1008C00008DFF48029E493A3F85407240CC8C33349
:1008D000C4540F4420C8834004F456800146F6DF18
:1008E000E4800B0102040810204080900B4AE47E53
:1008F000019360BCA3FF543F30E509541FFEE4930D
:10090000A360010ECF54C025E060A840B8E493A3D3
:10091000FAE493A3F8E493A3C8C582C8CAC583CAFE
:10092000F0A3C8C582C8CAC583CADFE9DEE780BEB6
:010B5800009C
:10080000BB010689828A83E0225002E722BBFE02F6
:09081000E32289828A83E4932229
:10081900C2D5EC30E709B2D5E4C39DFDE49CFCEEFA
:1008290030E715B2D5E4C39FFFE49EFE12084FC31B
:10083900E49DFDE49CFC800312084F30D507C3E416
:060849009FFFE49EFE2269
:10084F00BC000BBE0029EF8DF084FFADF022E4CC8D
:10085F00F875F008EF2FFFEE33FEEC33FCEE9DEC56
:10086F00984005FCEE9DFE0FD5F0E9E4CEFD22ED9C
:10087F00F8F5F0EE8420D21CFEADF075F008EF2FE6
:10088F00FFED33FD4007985006D5F0F222C398FDD7
:05089F000FD5F0EA2274
:00000001FF
