:03000000120200E9
:1002000075A0007590001202361202237483517398
:10021000120293E5641202821202C712023612031E
:100220001380FE75516175500575614C7562497595
:1002300063467564452275A038C280C281D282515E
:1002400093C282519375A00CC280C281D282519315
:10025000C282519375A001C280C281D2825193C2E1
:1002600082519375A006C280C281D2825193C2820C
:10027000519322F5A0C280C281D2825193C2825191
:100280009322F5A0D280C281D2825193C28251932F
:10029000519322C000C001780179FFD9FED8FAD06D
:1002A00001D00022C0E0C001C002C003E50775F024
:1002B00014A4F5037AC879FFD9FEDAFADBF6D00385
:1002C000D002D001D0E022C0077590FF750705125B
:1002D00002A475900FD00722C0E07590FFE59054FE
:1002E0000FF500D0E022C0E0C000C0071202D8E83D
:1002F000C41202D848F54FD007D000D0E022C0E0A9
:10030000C000C007855007A8511202E6E54FF60865
:10031000DFF722C0E0C000C001C006A851AE5012F5
:1003200002C775900FE590540FB50600501C28F5D4
:090330000174835173120293E77A
:100339001202821202937507021202A41202368077
:0D034900D175A001D006D001D000D0E02277
:00000001FF
