:03000000020120DA
:10010000755003755165756549756641756742752A
:100110006843756944756A45756B46AA50A85122B3
:10012000120162120151120100120148FD9A500E93
:10013000E82DF87485120184E612019980E575A016
:1001400001317712015180DB75900FE590540FFF5C
:1001500022C0057B287CC87DFFDDFEDCFADBF6D003
:10016000052275A038317775A00C317775A0013163
:100170007775A006317722C280C281D28231AAC2AD
:100180008231AA22F5A0317722C0E0E493600731E2
:100190009931AAA380F5D0E022F5A0D280C281D205
:1001A0008231AAC28231AA31AA22C000C0017801DC
:0B01B00079FFD9FED8FAD001D0002260
:0C03000048454C4C4F00574F524C4400F5
:00000001FF
