:1009A30048656C6C6F002020202020576F726C64A8
:0109B3000043
:0209B400C10080
:10088C00E4F5A01209297BFF7A0979A37D051208EA
:10089C00BB7FC01209777BFF7A0979A97D0A120800
:0F08AC00BB7FD07E071209087F0112097780D722
:100929007F647E001208EF7F381209777F0E120963
:0B093900777F011209777FC002097769
:100977008F081209448508A0C2801208E7C2827F47
:06098700057E000208EFEE
:10098D008F0C120944850CA0D2801208E7C2827F19
:06099D00057E000208EFD8
:1008BB008B088A09890A8D0BE50BD39400401CAB7E
:1008CB0008AA09A90A12095EFF12098D7401250AEB
:0C08DB00F50AE43509F509150B80DD2253
:1009440075A0FFC280D281C2821208EBD28230A786
:0A09540006C282D28280F7C282221E
:0808E700C281D2827F057E0070
:1008EF00D3EF9400EE64809480400DE4FD0DBD05C0
:0808FF00FCEF1F70EB1E80E806
:0109070022CD
:10090800D3EF9400EE648094804015E4FCFD0DBDA7
:1009180000010CBC01F8BD7EF5EF1F70E31E80E0FE
:0109280022AC
:03000000020800F3
:0C080000787FE4F6D8FD758120020847DF
:10095E00BB010689828A83E0225002E722BBFE0297
:09096E00E32289828A83E49322CA
:10080C0002088CE493A3F8E493A34003F68001F26E
:10081C0008DFF48029E493A3F85407240CC8C333ED
:10082C00C4540F4420C8834004F456800146F6DFBC
:10083C00E4800B01020408102040809009B4E47E8F
:10084C00019360BCA3FF543F30E509541FFEE493B1
:10085C00A360010ECF54C025E060A840B8E493A378
:10086C00FAE493A3F8E493A3C8C582C8CAC583CAA3
:10087C00F0A3C8C582C8CAC583CADFE9DEE780BE5B
:0109B6000040
:00000001FF
