:0A09C600C10002080000020A000050
:03002300020917B8
:10091700C0E0C0F0C083C082C0D075D000C000C0A6
:1009270001C002C003C004C005C006C007C299D2F7
:1009370000D2947F4112095EA201929BD007D00694
:10094700D005D004D003D002D001D000D0D0D082BF
:07095700D083D0F0D0E032A4
:1009A2004398C05398FC758920758DCCD2AFC2ABE9
:0509B200D2ACD28E2240
:10095E00D201E4F508F509F50AF50BEF1392013013
:10096E0001080509E50970020508EFA2E713FF0566
:10097E000BE50B7002050A6408450A70DEAE08AF7F
:10098E00097C007D0212088CED64014C7003D201CB
:04099E0022C201224E
:0F09B7001209A27599413000FDC200C29480F46C
:03000000020800F3
:0C080000787FE4F6D8FD758120020847DF
:10088C00C2D5EC30E709B2D5E4C39DFDE49CFCEE87
:10089C0030E715B2D5E4C39FFFE49EFE1208C2C335
:1008AC00E49DFDE49CFC80031208C230D507C3E430
:0608BC009FFFE49EFE22F6
:10080C000209B7E493A3F8E493A34003F68001F242
:10081C0008DFF48029E493A3F85407240CC8C333ED
:10082C00C4540F4420C8834004F456800146F6DFBC
:10083C00E4800B01020408102040809009C6E47E7D
:10084C00019360BCA3FF543F30E509541FFEE493B1
:10085C00A360010ECF54C025E060A840B8E493A378
:10086C00FAE493A3F8E493A3C8C582C8CAC583CAA3
:10087C00F0A3C8C582C8CAC583CADFE9DEE780BE5B
:0109D0000026
:1008C200BC000BBE0029EF8DF084FFADF022E4CC1A
:1008D200F875F008EF2FFFEE33FEEC33FCEE9DECE3
:1008E200984005FCEE9DFE0FD5F0E9E4CEFD22ED29
:1008F200F8F5F0EE8420D21CFEADF075F008EF2F73
:10090200FFED33FD4007985006D5F0F222C398FD63
:050912000FD5F0EA2200
:00000001FF
