:03000000020100FA
:100100007581CF755002755160754F0075900075FF
:10011000A00031DA31DA315331DA31DA31DA75907F
:10012000FF754D051201B012023C75500275516009
:100130007552701202597590F0754D051201B07527
:100140009000754D011201B0755002755170120288
:100150008980FE75A038C280C281D28231DAC28223
:1001600031DA75A00CC280C281D28231DAC282310A
:10017000DA75A001C280C281D28231DAC28231DA5C
:1001800075A006C280C281D28231DAC28231DA22FF
:10019000F5A0C280C281D28231DAC28231DA22F580
:1001A000A0D280C281D28231DAC28231DA31DA223F
:1001B000C0D0C001C002C003C004C0E0AC4D7B147D
:1001C000007AC879FFD9FEDAFADBF5DCF1D0E0D0AD
:1001D00004D003D002D001D0D022C000C0017801E9
:1001E00079FFD9FED8FAD001D00022C0D0C000C01B
:1001F000E075900F754D011201B0120233E8C4543E
:10020000F0F54F440FF590754D021201B075900F47
:10021000754D011201B0120233E8540F454FF54FEE
:10022000E8C4440FF590754D021201B0D0E0D00043
:10023000D0D02275900FE590540FF822C001C00273
:04024000C0D0C0E08A
:10024400A951AA501201EBA74F09DAF8D0E0D0D097
:10025400D002D00122C000C001C002C003C0D0C07F
:10026400E0A851A952AA501A850003E60866F709C6
:10027400DAF9E685030066F7D0E0D0D0D003D002E7
:10028400D001D00022C000C001C002C003C004C01D
:10029400D0C0E0AB51AA50120233E8C39A501AE816
:1002A4002BF9748331901201DAE712019F1201DAFB
:1002B400754D021201B002029B31B075A001C280DB
:1002C400C281D28231B0C28231B0D0E0D0D0D00469
:0902D400D003D002D001D00022B9
:00000001FF
